{
  "contractName": "VoteManager",
  "abi": [
    {
      "constant": true,
      "inputs": [],
      "name": "systemName",
      "outputs": [
        {
          "name": "",
          "type": "string"
        }
      ],
      "payable": false,
      "stateMutability": "view",
      "type": "function"
    },
    {
      "constant": true,
      "inputs": [
        {
          "name": "",
          "type": "uint256"
        }
      ],
      "name": "ballots",
      "outputs": [
        {
          "name": "isActive",
          "type": "bool"
        },
        {
          "name": "candidatesSize",
          "type": "uint256"
        }
      ],
      "payable": false,
      "stateMutability": "view",
      "type": "function"
    },
    {
      "constant": true,
      "inputs": [],
      "name": "owner",
      "outputs": [
        {
          "name": "",
          "type": "address"
        }
      ],
      "payable": false,
      "stateMutability": "view",
      "type": "function"
    },
    {
      "inputs": [],
      "payable": false,
      "stateMutability": "nonpayable",
      "type": "constructor"
    },
    {
      "constant": false,
      "inputs": [
        {
          "name": "x",
          "type": "string"
        }
      ],
      "name": "setSystemName",
      "outputs": [],
      "payable": false,
      "stateMutability": "nonpayable",
      "type": "function"
    },
    {
      "constant": false,
      "inputs": [
        {
          "name": "ballotId",
          "type": "uint256"
        },
        {
          "name": "voterId",
          "type": "uint256"
        },
        {
          "name": "candidateId",
          "type": "uint256"
        }
      ],
      "name": "vote",
      "outputs": [],
      "payable": false,
      "stateMutability": "nonpayable",
      "type": "function"
    },
    {
      "constant": false,
      "inputs": [
        {
          "name": "id",
          "type": "uint256"
        }
      ],
      "name": "endBallot",
      "outputs": [],
      "payable": false,
      "stateMutability": "nonpayable",
      "type": "function"
    },
    {
      "constant": true,
      "inputs": [
        {
          "name": "ballotIndex",
          "type": "uint256"
        }
      ],
      "name": "getCandidateNamesForBallot",
      "outputs": [
        {
          "name": "",
          "type": "bytes32[]"
        }
      ],
      "payable": false,
      "stateMutability": "view",
      "type": "function"
    },
    {
      "constant": true,
      "inputs": [
        {
          "name": "ballot",
          "type": "uint256"
        },
        {
          "name": "candidate",
          "type": "uint256"
        }
      ],
      "name": "getCandidateVoteCount",
      "outputs": [
        {
          "name": "",
          "type": "uint256"
        }
      ],
      "payable": false,
      "stateMutability": "view",
      "type": "function"
    },
    {
      "constant": true,
      "inputs": [
        {
          "name": "ballot",
          "type": "uint256"
        },
        {
          "name": "candidate",
          "type": "uint256"
        }
      ],
      "name": "getCandidate",
      "outputs": [
        {
          "name": "name",
          "type": "bytes32"
        },
        {
          "name": "voteCount",
          "type": "uint256"
        }
      ],
      "payable": false,
      "stateMutability": "view",
      "type": "function"
    }
  ],
  "bytecode": "0x60806040526040805190810160405280600f81526020017f54554c20766f74652073797374656d00000000000000000000000000000000008152506000908051906020019061004f929190610384565b5034801561005c57600080fd5b50606080600080600033600160006101000a81548173ffffffffffffffffffffffffffffffffffffffff021916908373ffffffffffffffffffffffffffffffffffffffff16021790555060026040519080825280602002602001820160405280156100d65781602001602082028038833980820191505090505b5094507f410000000000000000000000000000000000000000000000000000000000000085600081518110151561010957fe5b9060200190602002019060001916908160001916815250507f420000000000000000000000000000000000000000000000000000000000000085600181518110151561015157fe5b90602001906020020190600019169081600019168152505060016040519080825280602002602001820160405280156101995781602001602082028038833980820191505090505b509350620335078460008151811015156101af57fe5b90602001906020020181815250506002604080519081016040528060011515815260200160028152509080600181540180825580915050906001820390600052602060002090600402016000909192909190915060008201518160000160006101000a81548160ff02191690831515021790555060208201518160010155505050600260016002805490500381548110151561024757fe5b90600052602060002090600402019250600091505b60028210156102d5576040805190810160405280868481518110151561027e57fe5b9060200190602002015160001916815260200160008152508360020160008481526020019081526020016000206000820151816000019060001916905560208201518160010155905050818060010192505061025c565b600090505b835181101561037a57604080519081016040528060011515815260200160001515815250836003016000868481518110151561031257fe5b90602001906020020151815260200190815260200160002060008201518160000160006101000a81548160ff02191690831515021790555060208201518160000160016101000a81548160ff02191690831515021790555090505080806001019150506102da565b5050505050610429565b828054600181600116156101000203166002900490600052602060002090601f016020900481019282601f106103c557805160ff19168380011785556103f3565b828001600101855582156103f3579182015b828111156103f25782518255916020019190600101906103d7565b5b5090506104009190610404565b5090565b61042691905b8082111561042257600081600090555060010161040a565b5090565b90565b61097680620004396000396000f300608060405260043610610099576000357c0100000000000000000000000000000000000000000000000000000000900463ffffffff16806307dd2e4b1461009e57806309578a2e1461012e578063396aabeb146101b057806348fcc144146101fb5780634bd46448146102285780635c632b38146102825780638a6655d6146102ce5780638da5cb5b1461030f578063a44b7f5614610366575b600080fd5b3480156100aa57600080fd5b506100b36103cf565b6040518080602001828103825283818151815260200191508051906020019080838360005b838110156100f35780820151818401526020810190506100d8565b50505050905090810190601f1680156101205780820380516001836020036101000a031916815260200191505b509250505060405180910390f35b34801561013a57600080fd5b506101596004803603810190808035906020019092919050505061046d565b6040518080602001828103825283818151815260200191508051906020019060200280838360005b8381101561019c578082015181840152602081019050610181565b505050509050019250505060405180910390f35b3480156101bc57600080fd5b506101e56004803603810190808035906020019092919080359060200190929190505050610544565b6040518082815260200191505060405180910390f35b34801561020757600080fd5b5061022660048036038101908080359060200190929190505050610583565b005b34801561023457600080fd5b5061025d6004803603810190808035906020019092919080359060200190929190505050610684565b6040518083600019166000191681526020018281526020019250505060405180910390f35b34801561028e57600080fd5b506102ad600480360381019080803590602001909291905050506106fc565b60405180831515151581526020018281526020019250505060405180910390f35b3480156102da57600080fd5b5061030d60048036038101908080359060200190929190803590602001909291908035906020019092919050505061073c565b005b34801561031b57600080fd5b50610324610865565b604051808273ffffffffffffffffffffffffffffffffffffffff1673ffffffffffffffffffffffffffffffffffffffff16815260200191505060405180910390f35b34801561037257600080fd5b506103cd600480360381019080803590602001908201803590602001908080601f016020809104026020016040519081016040528093929190818152602001838380828437820191505050505050919291929050505061088b565b005b60008054600181600116156101000203166002900480601f0160208091040260200160405190810160405280929190818152602001828054600181600116156101000203166002900480156104655780601f1061043a57610100808354040283529160200191610465565b820191906000526020600020905b81548152906001019060200180831161044857829003601f168201915b505050505081565b606080600060028481548110151561048157fe5b9060005260206000209060040201600101546040519080825280602002602001820160405280156104c15781602001602082028038833980820191505090505b509150600090505b815181101561053a576002848154811015156104e157fe5b9060005260206000209060040201600201600082815260200190815260200160002060000154828281518110151561051557fe5b90602001906020020190600019169081600019168152505080806001019150506104c9565b8192505050919050565b600060028381548110151561055557fe5b9060005260206000209060040201600201600083815260200190815260200160002060010154905092915050565b600160009054906101000a900473ffffffffffffffffffffffffffffffffffffffff1673ffffffffffffffffffffffffffffffffffffffff163373ffffffffffffffffffffffffffffffffffffffff16141515610648576040517f08c379a00000000000000000000000000000000000000000000000000000000081526004018080602001828103825260128152602001807f4f776e65722d6f6e6c79206d6574686f642e000000000000000000000000000081525060200191505060405180910390fd5b600060028281548110151561065957fe5b906000526020600020906004020160000160006101000a81548160ff02191690831515021790555050565b60008060028481548110151561069657fe5b90600052602060002090600402016002016000848152602001908152602001600020600001546002858154811015156106cb57fe5b9060005260206000209060040201600201600085815260200190815260200160002060010154915091509250929050565b60028181548110151561070b57fe5b90600052602060002090600402016000915090508060000160009054906101000a900460ff16908060010154905082565b60028381548110151561074b57fe5b9060005260206000209060040201600301600083815260200190815260200160002060000160009054906101000a900460ff1680156107c9575060028381548110151561079457fe5b9060005260206000209060040201600301600083815260200190815260200160002060000160019054906101000a900460ff16155b156108605760016002848154811015156107df57fe5b9060005260206000209060040201600301600084815260200190815260200160002060000160016101000a81548160ff02191690831515021790555060028381548110151561082a57fe5b90600052602060002090600402016002016000828152602001908152602001600020600101600081548092919060010191905055505b505050565b600160009054906101000a900473ffffffffffffffffffffffffffffffffffffffff1681565b80600090805190602001906108a19291906108a5565b5050565b828054600181600116156101000203166002900490600052602060002090601f016020900481019282601f106108e657805160ff1916838001178555610914565b82800160010185558215610914579182015b828111156109135782518255916020019190600101906108f8565b5b5090506109219190610925565b5090565b61094791905b8082111561094357600081600090555060010161092b565b5090565b905600a165627a7a723058206fcd97961189b4c942ac7fb843ae2d6a46b956fb15f773fa08236b7cc55866df0029",
  "source": "pragma solidity ^0.4.24;\r\n\r\ncontract VoteManager {\r\n    string public systemName = \"TUL vote system\";\r\n    address public owner;\r\n\r\n    struct Voter {\r\n        bool isAllowed;\r\n        bool hasVoted;\r\n    }\r\n\r\n    struct Candidate {\r\n        bytes32 name;\r\n        uint voteCount;\r\n    }\r\n\r\n    struct Ballot {\r\n        bool isActive;\r\n        uint candidatesSize;\r\n        mapping(uint => Candidate) candidates;\r\n        mapping(uint => Voter) voters;  //key means voter id (e.g. 210210)\r\n    }\r\n\r\n    Ballot[] public ballots;\r\n\r\n    constructor() public {\r\n        owner = msg.sender;\r\n\r\n        // rest of the constructor is only example ballot;\r\n        bytes32[] memory candidateNames = new bytes32[](2);\r\n        candidateNames[0] = \"A\"; \r\n        candidateNames[1] = \"B\"; \r\n\r\n        uint[] memory voters = new uint[](1);\r\n        voters[0] = 210183;\r\n\r\n        //create new ballot\r\n        ballots.push(Ballot(true, 2));\r\n        Ballot storage createdBallot = ballots[ballots.length - 1];\r\n\r\n        for(uint i = 0; i < 2; i++)\r\n        {\r\n            createdBallot.candidates[i] = Candidate({name: candidateNames[i], voteCount: 0});\r\n        }\r\n\r\n        for(uint v = 0; v < voters.length; v++)\r\n        {\r\n            createdBallot.voters[voters[v]] = Voter(true, false);\r\n        }\r\n    }\r\n\r\n    function setSystemName(string memory x) public {\r\n        systemName = x;\r\n    }\r\n\r\n    function vote(uint ballotId, uint voterId, uint candidateId) public {\r\n        if(ballots[ballotId].voters[voterId].isAllowed && !ballots[ballotId].voters[voterId].hasVoted)\r\n        {\r\n            ballots[ballotId].voters[voterId].hasVoted = true;\r\n            ballots[ballotId].candidates[candidateId].voteCount++;\r\n        }\r\n    }\r\n\r\n    function endBallot(uint id) public onlyOwner {\r\n        ballots[id].isActive = false;\r\n    }\r\n\r\n    function getCandidateNamesForBallot(uint ballotIndex) public view returns(bytes32[] memory) {\r\n        bytes32[] memory candidateNames = new bytes32[](ballots[ballotIndex].candidatesSize);\r\n        for(uint i = 0; i < candidateNames.length; i++)\r\n        {\r\n            candidateNames[i] = ballots[ballotIndex].candidates[i].name;\r\n        }\r\n\r\n        return candidateNames;\r\n    }\r\n\r\n    // function getCandidatsForBallot(uint ballotIndex) public view returns(bytes32[] memory names, uint[] memory voteCounts) {\r\n    //     bytes32[] memory candidateNames = new bytes32[](ballots[ballotIndex].candidatesSize);\r\n    //     uint[] memory candidatesVotes = new uint[](ballots[ballotIndex].candidatesSize);\r\n    //     for(uint i = 0; i < candidateNames.length; i++)\r\n    //     {\r\n    //         candidateNames[i] = ballots[ballotIndex].candidates[i].name;\r\n    //         candidatesVotes[i] = ballots[ballotIndex].candidates[i].voteCount;\r\n    //     }\r\n\r\n    //     return candidateNames;\r\n    // }\r\n\r\n    function getCandidateVoteCount(uint ballot, uint candidate) public view returns(uint) {\r\n        return ballots[ballot].candidates[candidate].voteCount;\r\n    }\r\n\r\n    function getCandidate(uint ballot, uint candidate) public view returns(bytes32 name, uint voteCount) {\r\n        return (ballots[ballot].candidates[candidate].name, ballots[ballot].candidates[candidate].voteCount);\r\n    }\r\n\r\n    modifier onlyOwner() {\r\n        require(msg.sender == owner, \"Owner-only method.\");\r\n        _;\r\n    }\r\n}",
  "sourcePath": "C:\\Users\\Mateusz.Galasinski\\source\\repos\\VoteManagerContract\\Contracts\\contracts\\VoteManager.sol",
  "compiler": {
    "name": "solc",
    "version": "0.4.24+commit.e67f0147.Emscripten.clang"
  },
  "schemaVersion": "2.0.1",
  "updatedAt": "2018-12-15T14:42:50.230Z"
}