{
  "contractName": "VoteManager",
  "abi": [
    {
      "constant": true,
      "inputs": [],
      "name": "systemName",
      "outputs": [
        {
          "name": "",
          "type": "string"
        }
      ],
      "payable": false,
      "stateMutability": "view",
      "type": "function"
    },
    {
      "constant": true,
      "inputs": [],
      "name": "lastBallotIndex",
      "outputs": [
        {
          "name": "",
          "type": "uint256"
        }
      ],
      "payable": false,
      "stateMutability": "view",
      "type": "function"
    },
    {
      "constant": true,
      "inputs": [
        {
          "name": "",
          "type": "uint256"
        }
      ],
      "name": "ballots",
      "outputs": [
        {
          "name": "isActive",
          "type": "bool"
        },
        {
          "name": "candidatesSize",
          "type": "uint256"
        }
      ],
      "payable": false,
      "stateMutability": "view",
      "type": "function"
    },
    {
      "constant": true,
      "inputs": [],
      "name": "owner",
      "outputs": [
        {
          "name": "",
          "type": "address"
        }
      ],
      "payable": false,
      "stateMutability": "view",
      "type": "function"
    },
    {
      "inputs": [],
      "payable": false,
      "stateMutability": "nonpayable",
      "type": "constructor"
    },
    {
      "constant": false,
      "inputs": [
        {
          "name": "candidateNames",
          "type": "bytes32[]"
        },
        {
          "name": "voters",
          "type": "uint256[]"
        }
      ],
      "name": "createBallot",
      "outputs": [],
      "payable": false,
      "stateMutability": "nonpayable",
      "type": "function"
    },
    {
      "constant": false,
      "inputs": [
        {
          "name": "x",
          "type": "string"
        }
      ],
      "name": "setSystemName",
      "outputs": [],
      "payable": false,
      "stateMutability": "nonpayable",
      "type": "function"
    },
    {
      "constant": false,
      "inputs": [
        {
          "name": "ballotId",
          "type": "uint256"
        },
        {
          "name": "voterId",
          "type": "uint256"
        },
        {
          "name": "candidateId",
          "type": "uint256"
        }
      ],
      "name": "vote",
      "outputs": [],
      "payable": false,
      "stateMutability": "nonpayable",
      "type": "function"
    },
    {
      "constant": false,
      "inputs": [
        {
          "name": "id",
          "type": "uint256"
        }
      ],
      "name": "endBallot",
      "outputs": [],
      "payable": false,
      "stateMutability": "nonpayable",
      "type": "function"
    },
    {
      "constant": true,
      "inputs": [],
      "name": "getBallots",
      "outputs": [
        {
          "name": "states",
          "type": "bool[]"
        },
        {
          "name": "candidatesSizes",
          "type": "uint256[]"
        }
      ],
      "payable": false,
      "stateMutability": "view",
      "type": "function"
    },
    {
      "constant": true,
      "inputs": [
        {
          "name": "ballotIndex",
          "type": "uint256"
        }
      ],
      "name": "getCandidateNamesForBallot",
      "outputs": [
        {
          "name": "",
          "type": "bytes32[]"
        }
      ],
      "payable": false,
      "stateMutability": "view",
      "type": "function"
    },
    {
      "constant": true,
      "inputs": [
        {
          "name": "ballotIndex",
          "type": "uint256"
        }
      ],
      "name": "getCandidatsForBallot",
      "outputs": [
        {
          "name": "names",
          "type": "bytes32[]"
        },
        {
          "name": "voteCounts",
          "type": "uint256[]"
        }
      ],
      "payable": false,
      "stateMutability": "view",
      "type": "function"
    },
    {
      "constant": true,
      "inputs": [
        {
          "name": "ballot",
          "type": "uint256"
        },
        {
          "name": "candidate",
          "type": "uint256"
        }
      ],
      "name": "getCandidateVoteCount",
      "outputs": [
        {
          "name": "",
          "type": "uint256"
        }
      ],
      "payable": false,
      "stateMutability": "view",
      "type": "function"
    },
    {
      "constant": true,
      "inputs": [
        {
          "name": "ballot",
          "type": "uint256"
        },
        {
          "name": "candidate",
          "type": "uint256"
        }
      ],
      "name": "getCandidate",
      "outputs": [
        {
          "name": "name",
          "type": "bytes32"
        },
        {
          "name": "voteCount",
          "type": "uint256"
        }
      ],
      "payable": false,
      "stateMutability": "view",
      "type": "function"
    }
  ],
  "bytecode": "0x60806040526040805190810160405280600f81526020017f54554c20766f74652073797374656d00000000000000000000000000000000008152506000908051906020019062000051929190620005bf565b5060006002553480156200006457600080fd5b50606080600080600080600033600160006101000a81548173ffffffffffffffffffffffffffffffffffffffff021916908373ffffffffffffffffffffffffffffffffffffffff1602179055506002604051908082528060200260200182016040528015620000e25781602001602082028038833980820191505090505b5096507f41000000000000000000000000000000000000000000000000000000000000008760008151811015156200011657fe5b9060200190602002019060001916908160001916815250507f42000000000000000000000000000000000000000000000000000000000000008760018151811015156200015f57fe5b9060200190602002019060001916908160001916815250506064604051908082528060200260200182016040528015620001a85781602001602082028038833980820191505090505b50955062033507866000815181101515620001bf57fe5b9060200190602002018181525050600194505b60648510156200020857848686815181101515620001ec57fe5b90602001906020020181815250508480600101955050620001d2565b6003604080519081016040528060011515815260200160028152509080600181540180825580915050906001820390600052602060002090600402016000909192909190915060008201518160000160006101000a81548160ff0219169083151502179055506020820151816001015550505060036001600380549050038154811015156200029357fe5b90600052602060002090600402019350600092505b6002831015620003245760408051908101604052808885815181101515620002cc57fe5b90602001906020020151600019168152602001600081525084600201600085815260200190815260200160002060008201518160000190600019169055602082015181600101559050508280600101935050620002a8565b600091505b8551821015620003cc5760408051908101604052806001151581526020016000151581525084600301600088858151811015156200036357fe5b90602001906020020151815260200190815260200160002060008201518160000160006101000a81548160ff02191690831515021790555060208201518160000160016101000a81548160ff021916908315150217905550905050818060010192505062000329565b6003604080519081016040528060011515815260200160028152509080600181540180825580915050906001820390600052602060002090600402016000909192909190915060008201518160000160006101000a81548160ff0219169083151502179055506020820151816001015550505060036001600380549050038154811015156200045757fe5b90600052602060002090600402019050600092505b6002831015620004ed57604080519081016040528088858151811015156200049057fe5b90602001906020020151600019168152602001600a6003860201815250816002016000858152602001908152602001600020600082015181600001906000191690556020820151816001015590505082806001019350506200046c565b600091505b8551821015620005955760408051908101604052806001151581526020016000151581525081600301600088858151811015156200052c57fe5b90602001906020020151815260200190815260200160002060008201518160000160006101000a81548160ff02191690831515021790555060208201518160000160016101000a81548160ff0219169083151502179055509050508180600101925050620004f2565b60008160000160006101000a81548160ff021916908315150217905550505050505050506200066e565b828054600181600116156101000203166002900490600052602060002090601f016020900481019282601f106200060257805160ff191683800117855562000633565b8280016001018555821562000633579182015b828111156200063257825182559160200191906001019062000615565b5b50905062000642919062000646565b5090565b6200066b91905b80821115620006675760008160009055506001016200064d565b5090565b90565b611152806200067e6000396000f3006080604052600436106100c5576000357c0100000000000000000000000000000000000000000000000000000000900463ffffffff16806307dd2e4b146100ca57806309578a2e1461015a57806314b9f2e3146101dc578063396aabeb1461020757806348fcc144146102525780634bd464481461027f5780635c632b38146102d95780638a6655d6146103255780638da5cb5b14610366578063a44b7f56146103bd578063d826c47614610426578063eb87c6dc146104cf578063f3f0449314610583575b600080fd5b3480156100d657600080fd5b506100df61064d565b6040518080602001828103825283818151815260200191508051906020019080838360005b8381101561011f578082015181840152602081019050610104565b50505050905090810190601f16801561014c5780820380516001836020036101000a031916815260200191505b509250505060405180910390f35b34801561016657600080fd5b50610185600480360381019080803590602001909291905050506106eb565b6040518080602001828103825283818151815260200191508051906020019060200280838360005b838110156101c85780820151818401526020810190506101ad565b505050509050019250505060405180910390f35b3480156101e857600080fd5b506101f16107c2565b6040518082815260200191505060405180910390f35b34801561021357600080fd5b5061023c60048036038101908080359060200190929190803590602001909291905050506107c8565b6040518082815260200191505060405180910390f35b34801561025e57600080fd5b5061027d60048036038101908080359060200190929190505050610807565b005b34801561028b57600080fd5b506102b46004803603810190808035906020019092919080359060200190929190505050610908565b6040518083600019166000191681526020018281526020019250505060405180910390f35b3480156102e557600080fd5b5061030460048036038101908080359060200190929190505050610980565b60405180831515151581526020018281526020019250505060405180910390f35b34801561033157600080fd5b506103646004803603810190808035906020019092919080359060200190929190803590602001909291905050506109c0565b005b34801561037257600080fd5b5061037b610bc3565b604051808273ffffffffffffffffffffffffffffffffffffffff1673ffffffffffffffffffffffffffffffffffffffff16815260200191505060405180910390f35b3480156103c957600080fd5b50610424600480360381019080803590602001908201803590602001908080601f0160208091040260200160405190810160405280939291908181526020018383808284378201915050505050509192919290505050610be9565b005b34801561043257600080fd5b506104cd6004803603810190808035906020019082018035906020019080806020026020016040519081016040528093929190818152602001838360200280828437820191505050505050919291929080359060200190820180359060200190808060200260200160405190810160405280939291908181526020018383602002808284378201915050505050509192919290505050610c03565b005b3480156104db57600080fd5b506104e4610dd1565b604051808060200180602001838103835285818151815260200191508051906020019060200280838360005b8381101561052b578082015181840152602081019050610510565b50505050905001838103825284818151815260200191508051906020019060200280838360005b8381101561056d578082015181840152602081019050610552565b5050505090500194505050505060405180910390f35b34801561058f57600080fd5b506105ae60048036038101908080359060200190929190505050610f00565b604051808060200180602001838103835285818151815260200191508051906020019060200280838360005b838110156105f55780820151818401526020810190506105da565b50505050905001838103825284818151815260200191508051906020019060200280838360005b8381101561063757808201518184015260208101905061061c565b5050505090500194505050505060405180910390f35b60008054600181600116156101000203166002900480601f0160208091040260200160405190810160405280929190818152602001828054600181600116156101000203166002900480156106e35780601f106106b8576101008083540402835291602001916106e3565b820191906000526020600020905b8154815290600101906020018083116106c657829003601f168201915b505050505081565b60608060006003848154811015156106ff57fe5b90600052602060002090600402016001015460405190808252806020026020018201604052801561073f5781602001602082028038833980820191505090505b509150600090505b81518110156107b85760038481548110151561075f57fe5b9060005260206000209060040201600201600082815260200190815260200160002060000154828281518110151561079357fe5b9060200190602002019060001916908160001916815250508080600101915050610747565b8192505050919050565b60025481565b60006003838154811015156107d957fe5b9060005260206000209060040201600201600083815260200190815260200160002060010154905092915050565b600160009054906101000a900473ffffffffffffffffffffffffffffffffffffffff1673ffffffffffffffffffffffffffffffffffffffff163373ffffffffffffffffffffffffffffffffffffffff161415156108cc576040517f08c379a00000000000000000000000000000000000000000000000000000000081526004018080602001828103825260128152602001807f4f776e65722d6f6e6c79206d6574686f642e000000000000000000000000000081525060200191505060405180910390fd5b60006003828154811015156108dd57fe5b906000526020600020906004020160000160006101000a81548160ff02191690831515021790555050565b60008060038481548110151561091a57fe5b906000526020600020906004020160020160008481526020019081526020016000206000015460038581548110151561094f57fe5b9060005260206000209060040201600201600085815260200190815260200160002060010154915091509250929050565b60038181548110151561098f57fe5b90600052602060002090600402016000915090508060000160009054906101000a900460ff16908060010154905082565b6003838154811015156109cf57fe5b9060005260206000209060040201600301600083815260200190815260200160002060000160009054906101000a900460ff161515610a76576040517f08c379a00000000000000000000000000000000000000000000000000000000081526004018080602001828103825260178152602001807f5468657265206973206e6f207375636820766f7465722e00000000000000000081525060200191505060405180910390fd5b600383815481101515610a8557fe5b9060005260206000209060040201600301600083815260200190815260200160002060000160019054906101000a900460ff16151515610b2d576040517f08c379a000000000000000000000000000000000000000000000000000000000815260040180806020018281038252601d8152602001807f5468697320766f7465722068617320616c726561647920766f7465642e00000081525060200191505060405180910390fd5b6001600384815481101515610b3e57fe5b9060005260206000209060040201600301600084815260200190815260200160002060000160016101000a81548160ff021916908315150217905550600383815481101515610b8957fe5b9060005260206000209060040201600201600082815260200190815260200160002060010160008154809291906001019190505550505050565b600160009054906101000a900473ffffffffffffffffffffffffffffffffffffffff1681565b8060009080519060200190610bff929190611081565b5050565b6000806000806003604080519081016040528060011515815260200188518152509080600181540180825580915050906001820390600052602060002090600402016000909192909190915060008201518160000160006101000a81548160ff0219169083151502179055506020820151816001015550509350600360018503815481101515610c8f57fe5b90600052602060002090600402019250600091505b8551821015610d1d5760408051908101604052808784815181101515610cc657fe5b90602001906020020151600019168152602001600081525083600201600084815260200190815260200160002060008201518160000190600019169055602082015181600101559050508180600101925050610ca4565b600090505b8451811015610dc2576040805190810160405280600115158152602001600015158152508360030160008784815181101515610d5a57fe5b90602001906020020151815260200190815260200160002060008201518160000160006101000a81548160ff02191690831515021790555060208201518160000160016101000a81548160ff0219169083151502179055509050508080600101915050610d22565b83600281905550505050505050565b6060806060806000600380549050604051908082528060200260200182016040528015610e0d5781602001602082028038833980820191505090505b509250600380549050604051908082528060200260200182016040528015610e445781602001602082028038833980820191505090505b509150600090505b600380549050811015610ef357600381815481101515610e6857fe5b906000526020600020906004020160000160009054906101000a900460ff168382815181101515610e9557fe5b9060200190602002019015159081151581525050600381815481101515610eb857fe5b9060005260206000209060040201600101548282815181101515610ed857fe5b90602001906020020181815250508080600101915050610e4c565b8282945094505050509091565b6060806060806000600386815481101515610f1757fe5b906000526020600020906004020160010154604051908082528060200260200182016040528015610f575781602001602082028038833980820191505090505b509250600386815481101515610f6957fe5b906000526020600020906004020160010154604051908082528060200260200182016040528015610fa95781602001602082028038833980820191505090505b509150600090505b825181101561107357600386815481101515610fc957fe5b90600052602060002090600402016002016000828152602001908152602001600020600001548382815181101515610ffd57fe5b90602001906020020190600019169081600019168152505060038681548110151561102457fe5b9060005260206000209060040201600201600082815260200190815260200160002060010154828281518110151561105857fe5b90602001906020020181815250508080600101915050610fb1565b828294509450505050915091565b828054600181600116156101000203166002900490600052602060002090601f016020900481019282601f106110c257805160ff19168380011785556110f0565b828001600101855582156110f0579182015b828111156110ef5782518255916020019190600101906110d4565b5b5090506110fd9190611101565b5090565b61112391905b8082111561111f576000816000905550600101611107565b5090565b905600a165627a7a72305820c0e931432cf27bbafa0cace167dca2d23831f9b779062b37dc5783a7dc674b860029",
  "source": "pragma solidity ^0.4.24;\r\n\r\ncontract VoteManager {\r\n    string public systemName = \"TUL vote system\";\r\n    address public owner;\r\n    uint public lastBallotIndex = 0;\r\n\r\n    struct Voter {\r\n        bool isAllowed;\r\n        bool hasVoted;\r\n    }\r\n\r\n    struct Candidate {\r\n        bytes32 name;\r\n        uint voteCount;\r\n    }\r\n\r\n    struct Ballot {\r\n        bool isActive;\r\n        uint candidatesSize;\r\n        mapping(uint => Candidate) candidates;\r\n        mapping(uint => Voter) voters;  //key means voter id (e.g. 210210)\r\n    }\r\n\r\n    Ballot[] public ballots;\r\n\r\n    constructor() public {\r\n        owner = msg.sender;\r\n\r\n        // rest of the constructor is only example ballot;\r\n        bytes32[] memory candidateNames = new bytes32[](2);\r\n        candidateNames[0] = \"A\"; \r\n        candidateNames[1] = \"B\"; \r\n\r\n        // mocks\r\n        uint[] memory voters = new uint[](100);\r\n        voters[0] = 210183;\r\n        for(uint j = 1; j < 100; j++)\r\n        {\r\n            voters[j] = j;\r\n        }\r\n\r\n        //create new active ballot\r\n        ballots.push(Ballot(true, 2));\r\n        Ballot storage createdBallot = ballots[ballots.length - 1];\r\n\r\n        for(uint i = 0; i < 2; i++)\r\n        {\r\n            createdBallot.candidates[i] = Candidate({name: candidateNames[i], voteCount: 0});\r\n        }\r\n\r\n        for(uint v = 0; v < voters.length; v++)\r\n        {\r\n            createdBallot.voters[voters[v]] = Voter(true, false);\r\n        }\r\n\r\n        //create new already ended ballot\r\n        ballots.push(Ballot(true, 2));\r\n        Ballot storage endedBallot = ballots[ballots.length - 1];\r\n\r\n        for(i = 0; i < 2; i++)\r\n        {\r\n            endedBallot.candidates[i] = Candidate({name: candidateNames[i], voteCount: i*3 + 10});\r\n        }\r\n\r\n        for(v = 0; v < voters.length; v++)\r\n        {\r\n            endedBallot.voters[voters[v]] = Voter(true, false);\r\n        }\r\n\r\n        endedBallot.isActive = false;\r\n    }\r\n\r\n    function createBallot(bytes32[] memory candidateNames, uint[] memory voters) public{\r\n        uint newIndex = ballots.push(Ballot(true, candidateNames.length));\r\n        Ballot storage createdBallot = ballots[newIndex - 1];\r\n        for(uint i = 0; i < candidateNames.length; i++)\r\n        {\r\n            createdBallot.candidates[i] = Candidate({name: candidateNames[i], voteCount: 0});\r\n        }\r\n\r\n        for(uint v = 0; v < voters.length; v++)\r\n        {\r\n            createdBallot.voters[voters[v]] = Voter(true, false);\r\n        }\r\n\r\n        lastBallotIndex = newIndex;\r\n    }\r\n\r\n    function setSystemName(string memory x) public {\r\n        systemName = x;\r\n    }\r\n\r\n    //TODO: possible security issue \r\n    function vote(uint ballotId, uint voterId, uint candidateId) public {\r\n        require(ballots[ballotId].voters[voterId].isAllowed, \"There is no such voter.\");\r\n        require(!ballots[ballotId].voters[voterId].hasVoted, \"This voter has already voted.\");\r\n\r\n        ballots[ballotId].voters[voterId].hasVoted = true;\r\n        ballots[ballotId].candidates[candidateId].voteCount++;\r\n    }\r\n\r\n    function endBallot(uint id) public onlyOwner {\r\n        ballots[id].isActive = false;\r\n    }\r\n\r\n    function getBallots() public view returns(bool[] memory states, uint[] memory candidatesSizes) {\r\n        bool[] memory ballotsState = new bool[](ballots.length);\r\n        uint[] memory ballotsCandidatesSizes = new uint[](ballots.length);\r\n        for(uint i = 0; i < ballots.length; i++)\r\n        {\r\n            ballotsState[i] = ballots[i].isActive;\r\n            ballotsCandidatesSizes[i] = ballots[i].candidatesSize;\r\n        }\r\n        return (ballotsState, ballotsCandidatesSizes);\r\n    }\r\n\r\n    function getCandidateNamesForBallot(uint ballotIndex) public view returns(bytes32[] memory) {\r\n        bytes32[] memory candidateNames = new bytes32[](ballots[ballotIndex].candidatesSize);\r\n        for(uint i = 0; i < candidateNames.length; i++)\r\n        {\r\n            candidateNames[i] = ballots[ballotIndex].candidates[i].name;\r\n        }\r\n\r\n        return candidateNames;\r\n    }\r\n\r\n    function getCandidatsForBallot(uint ballotIndex) public view returns(bytes32[] memory names, uint[] memory voteCounts) {\r\n        bytes32[] memory candidateNames = new bytes32[](ballots[ballotIndex].candidatesSize);\r\n        uint[] memory candidatesVotes = new uint[](ballots[ballotIndex].candidatesSize);\r\n        for(uint i = 0; i < candidateNames.length; i++)\r\n        {\r\n            candidateNames[i] = ballots[ballotIndex].candidates[i].name;\r\n            candidatesVotes[i] = ballots[ballotIndex].candidates[i].voteCount;\r\n        }\r\n\r\n        return (candidateNames, candidatesVotes);\r\n    }\r\n\r\n    function getCandidateVoteCount(uint ballot, uint candidate) public view returns(uint) {\r\n        return ballots[ballot].candidates[candidate].voteCount;\r\n    }\r\n\r\n    function getCandidate(uint ballot, uint candidate) public view returns(bytes32 name, uint voteCount) {\r\n        return (ballots[ballot].candidates[candidate].name, ballots[ballot].candidates[candidate].voteCount);\r\n    }\r\n\r\n    modifier onlyOwner() {\r\n        require(msg.sender == owner, \"Owner-only method.\");\r\n        _;\r\n    }\r\n}",
  "sourcePath": "C:\\Users\\Mateusz.Galasinski\\source\\repos\\VoteManagerContract\\Contracts\\contracts\\VoteManager.sol",
  "compiler": {
    "name": "solc",
    "version": "0.4.24+commit.e67f0147.Emscripten.clang"
  },
  "schemaVersion": "2.0.1",
  "updatedAt": "2018-12-19T06:58:59.474Z"
}