{
  "contractName": "VoteManager",
  "abi": [
    {
      "constant": true,
      "inputs": [],
      "name": "systemName",
      "outputs": [
        {
          "name": "",
          "type": "string"
        }
      ],
      "payable": false,
      "stateMutability": "view",
      "type": "function"
    },
    {
      "constant": true,
      "inputs": [],
      "name": "lastBallotIndex",
      "outputs": [
        {
          "name": "",
          "type": "uint256"
        }
      ],
      "payable": false,
      "stateMutability": "view",
      "type": "function"
    },
    {
      "constant": true,
      "inputs": [
        {
          "name": "",
          "type": "uint256"
        }
      ],
      "name": "ballots",
      "outputs": [
        {
          "name": "isActive",
          "type": "bool"
        },
        {
          "name": "candidatesSize",
          "type": "uint256"
        }
      ],
      "payable": false,
      "stateMutability": "view",
      "type": "function"
    },
    {
      "constant": true,
      "inputs": [],
      "name": "owner",
      "outputs": [
        {
          "name": "",
          "type": "address"
        }
      ],
      "payable": false,
      "stateMutability": "view",
      "type": "function"
    },
    {
      "inputs": [],
      "payable": false,
      "stateMutability": "nonpayable",
      "type": "constructor"
    },
    {
      "constant": false,
      "inputs": [
        {
          "name": "candidateNames",
          "type": "bytes32[]"
        },
        {
          "name": "voters",
          "type": "uint256[]"
        }
      ],
      "name": "createBallot",
      "outputs": [],
      "payable": false,
      "stateMutability": "nonpayable",
      "type": "function"
    },
    {
      "constant": false,
      "inputs": [
        {
          "name": "x",
          "type": "string"
        }
      ],
      "name": "setSystemName",
      "outputs": [],
      "payable": false,
      "stateMutability": "nonpayable",
      "type": "function"
    },
    {
      "constant": false,
      "inputs": [
        {
          "name": "ballotId",
          "type": "uint256"
        },
        {
          "name": "voterId",
          "type": "uint256"
        },
        {
          "name": "candidateId",
          "type": "uint256"
        }
      ],
      "name": "vote",
      "outputs": [],
      "payable": false,
      "stateMutability": "nonpayable",
      "type": "function"
    },
    {
      "constant": false,
      "inputs": [
        {
          "name": "id",
          "type": "uint256"
        }
      ],
      "name": "endBallot",
      "outputs": [],
      "payable": false,
      "stateMutability": "nonpayable",
      "type": "function"
    },
    {
      "constant": true,
      "inputs": [],
      "name": "getBallots",
      "outputs": [
        {
          "name": "states",
          "type": "bool[]"
        },
        {
          "name": "candidatesSizes",
          "type": "uint256[]"
        }
      ],
      "payable": false,
      "stateMutability": "view",
      "type": "function"
    },
    {
      "constant": true,
      "inputs": [
        {
          "name": "ballotIndex",
          "type": "uint256"
        }
      ],
      "name": "getCandidateNamesForBallot",
      "outputs": [
        {
          "name": "",
          "type": "bytes32[]"
        }
      ],
      "payable": false,
      "stateMutability": "view",
      "type": "function"
    },
    {
      "constant": true,
      "inputs": [
        {
          "name": "ballotIndex",
          "type": "uint256"
        }
      ],
      "name": "getCandidatsForBallot",
      "outputs": [
        {
          "name": "names",
          "type": "bytes32[]"
        },
        {
          "name": "voteCounts",
          "type": "uint256[]"
        }
      ],
      "payable": false,
      "stateMutability": "view",
      "type": "function"
    },
    {
      "constant": true,
      "inputs": [
        {
          "name": "ballot",
          "type": "uint256"
        },
        {
          "name": "candidate",
          "type": "uint256"
        }
      ],
      "name": "getCandidateVoteCount",
      "outputs": [
        {
          "name": "",
          "type": "uint256"
        }
      ],
      "payable": false,
      "stateMutability": "view",
      "type": "function"
    },
    {
      "constant": true,
      "inputs": [
        {
          "name": "ballot",
          "type": "uint256"
        },
        {
          "name": "candidate",
          "type": "uint256"
        }
      ],
      "name": "getCandidate",
      "outputs": [
        {
          "name": "name",
          "type": "bytes32"
        },
        {
          "name": "voteCount",
          "type": "uint256"
        }
      ],
      "payable": false,
      "stateMutability": "view",
      "type": "function"
    }
  ],
  "bytecode": "0x60806040526040805190810160405280600f81526020017f54554c20766f74652073797374656d000000000000000000000000000000000081525060009080519060200190620000519291906200059c565b5060006002553480156200006457600080fd5b5033600160006101000a81548173ffffffffffffffffffffffffffffffffffffffff021916908373ffffffffffffffffffffffffffffffffffffffff16021790555060606002604051908082528060200260200182016040528015620000d95781602001602082028038833980820191505090505b5090507f41000000000000000000000000000000000000000000000000000000000000008160008151811015156200010d57fe5b90602001906020020181815250507f42000000000000000000000000000000000000000000000000000000000000008160018151811015156200014c57fe5b9060200190602002018181525050606060646040519080825280602002602001820160405280156200018d5781602001602082028038833980820191505090505b50905062033507816000815181101515620001a457fe5b90602001906020020181815250506000600190505b600a811015620001ef57808282815181101515620001d357fe5b90602001906020020181815250508080600101915050620001b9565b506003604080519081016040528060011515815260200160028152509080600181540180825580915050906001820390600052602060002090600402016000909192909190915060008201518160000160006101000a81548160ff02191690831515021790555060208201518160010155505050600060036001600380549050038154811015156200027d57fe5b9060005260206000209060040201905060008090505b6002811015620003055760408051908101604052808583815181101515620002b757fe5b90602001906020020151815260200160008152508260020160008381526020019081526020016000206000820151816000015560208201518160010155905050808060010191505062000293565b5060008090505b8251811015620003af5760408051908101604052806001151581526020016000151581525082600301600085848151811015156200034657fe5b90602001906020020151815260200190815260200160002060008201518160000160006101000a81548160ff02191690831515021790555060208201518160000160016101000a81548160ff02191690831515021790555090505080806001019150506200030c565b506003604080519081016040528060011515815260200160028152509080600181540180825580915050906001820390600052602060002090600402016000909192909190915060008201518160000160006101000a81548160ff02191690831515021790555060208201518160010155505050600060036001600380549050038154811015156200043d57fe5b9060005260206000209060040201905060008090505b6002811015620004ca57604080519081016040528086838151811015156200047757fe5b906020019060200201518152602001600a60038402018152508260020160008381526020019081526020016000206000820151816000015560208201518160010155905050808060010191505062000453565b5060008090505b8351811015620005745760408051908101604052806001151581526020016000151581525082600301600086848151811015156200050b57fe5b90602001906020020151815260200190815260200160002060008201518160000160006101000a81548160ff02191690831515021790555060208201518160000160016101000a81548160ff0219169083151502179055509050508080600101915050620004d1565b5060008160000160006101000a81548160ff021916908315150217905550505050506200064b565b828054600181600116156101000203166002900490600052602060002090601f016020900481019282601f10620005df57805160ff191683800117855562000610565b8280016001018555821562000610579182015b828111156200060f578251825591602001919060010190620005f2565b5b5090506200061f919062000623565b5090565b6200064891905b80821115620006445760008160009055506001016200062a565b5090565b90565b61129c806200065b6000396000f3fe6080604052600436106100c5576000357c0100000000000000000000000000000000000000000000000000000000900463ffffffff16806307dd2e4b146100ca57806309578a2e1461015a57806314b9f2e3146101ea578063396aabeb1461021557806348fcc1441461026e5780634bd46448146102a95780635c632b38146103095780638a6655d6146103635780638da5cb5b146103b2578063a44b7f5614610409578063d826c476146104d1578063eb87c6dc1461062a578063f3f04493146106de575b600080fd5b3480156100d657600080fd5b506100df6107b6565b6040518080602001828103825283818151815260200191508051906020019080838360005b8381101561011f578082015181840152602081019050610104565b50505050905090810190601f16801561014c5780820380516001836020036101000a031916815260200191505b509250505060405180910390f35b34801561016657600080fd5b506101936004803603602081101561017d57600080fd5b8101908080359060200190929190505050610854565b6040518080602001828103825283818151815260200191508051906020019060200280838360005b838110156101d65780820151818401526020810190506101bb565b505050509050019250505060405180910390f35b3480156101f657600080fd5b506101ff610920565b6040518082815260200191505060405180910390f35b34801561022157600080fd5b506102586004803603604081101561023857600080fd5b810190808035906020019092919080359060200190929190505050610926565b6040518082815260200191505060405180910390f35b34801561027a57600080fd5b506102a76004803603602081101561029157600080fd5b8101908080359060200190929190505050610965565b005b3480156102b557600080fd5b506102ec600480360360408110156102cc57600080fd5b810190808035906020019092919080359060200190929190505050610a66565b604051808381526020018281526020019250505060405180910390f35b34801561031557600080fd5b506103426004803603602081101561032c57600080fd5b8101908080359060200190929190505050610ade565b60405180831515151581526020018281526020019250505060405180910390f35b34801561036f57600080fd5b506103b06004803603606081101561038657600080fd5b81019080803590602001909291908035906020019092919080359060200190929190505050610b1e565b005b3480156103be57600080fd5b506103c7610d21565b604051808273ffffffffffffffffffffffffffffffffffffffff1673ffffffffffffffffffffffffffffffffffffffff16815260200191505060405180910390f35b34801561041557600080fd5b506104cf6004803603602081101561042c57600080fd5b810190808035906020019064010000000081111561044957600080fd5b82018360208201111561045b57600080fd5b8035906020019184600183028401116401000000008311171561047d57600080fd5b91908080601f016020809104026020016040519081016040528093929190818152602001838380828437600081840152601f19601f820116905080830192505050505050509192919290505050610d47565b005b3480156104dd57600080fd5b50610628600480360360408110156104f457600080fd5b810190808035906020019064010000000081111561051157600080fd5b82018360208201111561052357600080fd5b8035906020019184602083028401116401000000008311171561054557600080fd5b919080806020026020016040519081016040528093929190818152602001838360200280828437600081840152601f19601f820116905080830192505050505050509192919290803590602001906401000000008111156105a557600080fd5b8201836020820111156105b757600080fd5b803590602001918460208302840111640100000000831117156105d957600080fd5b919080806020026020016040519081016040528093929190818152602001838360200280828437600081840152601f19601f820116905080830192505050505050509192919290505050610d61565b005b34801561063657600080fd5b5061063f610f25565b604051808060200180602001838103835285818151815260200191508051906020019060200280838360005b8381101561068657808201518184015260208101905061066b565b50505050905001838103825284818151815260200191508051906020019060200280838360005b838110156106c85780820151818401526020810190506106ad565b5050505090500194505050505060405180910390f35b3480156106ea57600080fd5b506107176004803603602081101561070157600080fd5b8101908080359060200190929190505050611054565b604051808060200180602001838103835285818151815260200191508051906020019060200280838360005b8381101561075e578082015181840152602081019050610743565b50505050905001838103825284818151815260200191508051906020019060200280838360005b838110156107a0578082015181840152602081019050610785565b5050505090500194505050505060405180910390f35b60008054600181600116156101000203166002900480601f01602080910402602001604051908101604052809291908181526020018280546001816001161561010002031660029004801561084c5780601f106108215761010080835404028352916020019161084c565b820191906000526020600020905b81548152906001019060200180831161082f57829003601f168201915b505050505081565b60608060038381548110151561086657fe5b9060005260206000209060040201600101546040519080825280602002602001820160405280156108a65781602001602082028038833980820191505090505b50905060008090505b8151811015610916576003848154811015156108c757fe5b906000526020600020906004020160020160008281526020019081526020016000206000015482828151811015156108fb57fe5b906020019060200201818152505080806001019150506108af565b5080915050919050565b60025481565b600060038381548110151561093757fe5b9060005260206000209060040201600201600083815260200190815260200160002060010154905092915050565b600160009054906101000a900473ffffffffffffffffffffffffffffffffffffffff1673ffffffffffffffffffffffffffffffffffffffff163373ffffffffffffffffffffffffffffffffffffffff16141515610a2a576040517f08c379a00000000000000000000000000000000000000000000000000000000081526004018080602001828103825260128152602001807f4f776e65722d6f6e6c79206d6574686f642e000000000000000000000000000081525060200191505060405180910390fd5b6000600382815481101515610a3b57fe5b906000526020600020906004020160000160006101000a81548160ff02191690831515021790555050565b600080600384815481101515610a7857fe5b9060005260206000209060040201600201600084815260200190815260200160002060000154600385815481101515610aad57fe5b9060005260206000209060040201600201600085815260200190815260200160002060010154915091509250929050565b600381815481101515610aed57fe5b90600052602060002090600402016000915090508060000160009054906101000a900460ff16908060010154905082565b600383815481101515610b2d57fe5b9060005260206000209060040201600301600083815260200190815260200160002060000160009054906101000a900460ff161515610bd4576040517f08c379a00000000000000000000000000000000000000000000000000000000081526004018080602001828103825260178152602001807f5468657265206973206e6f207375636820766f7465722e00000000000000000081525060200191505060405180910390fd5b600383815481101515610be357fe5b9060005260206000209060040201600301600083815260200190815260200160002060000160019054906101000a900460ff16151515610c8b576040517f08c379a000000000000000000000000000000000000000000000000000000000815260040180806020018281038252601d8152602001807f5468697320766f7465722068617320616c726561647920766f7465642e00000081525060200191505060405180910390fd5b6001600384815481101515610c9c57fe5b9060005260206000209060040201600301600084815260200190815260200160002060000160016101000a81548160ff021916908315150217905550600383815481101515610ce757fe5b9060005260206000209060040201600201600082815260200190815260200160002060010160008154809291906001019190505550505050565b600160009054906101000a900473ffffffffffffffffffffffffffffffffffffffff1681565b8060009080519060200190610d5d9291906111cb565b5050565b60006003604080519081016040528060011515815260200185518152509080600181540180825580915050906001820390600052602060002090600402016000909192909190915060008201518160000160006101000a81548160ff02191690831515021790555060208201518160010155505090506000600360018303815481101515610deb57fe5b9060005260206000209060040201905060008090505b8451811015610e705760408051908101604052808683815181101515610e2357fe5b906020019060200201518152602001600081525082600201600083815260200190815260200160002060008201518160000155602082015181600101559050508080600101915050610e01565b5060008090505b8351811015610f17576040805190810160405280600115158152602001600015158152508260030160008684815181101515610eaf57fe5b90602001906020020151815260200190815260200160002060008201518160000160006101000a81548160ff02191690831515021790555060208201518160000160016101000a81548160ff0219169083151502179055509050508080600101915050610e77565b508160028190555050505050565b6060806060600380549050604051908082528060200260200182016040528015610f5e5781602001602082028038833980820191505090505b5090506060600380549050604051908082528060200260200182016040528015610f975781602001602082028038833980820191505090505b50905060008090505b60038054905081101561104757600381815481101515610fbc57fe5b906000526020600020906004020160000160009054906101000a900460ff168382815181101515610fe957fe5b906020019060200201901515908115158152505060038181548110151561100c57fe5b906000526020600020906004020160010154828281518110151561102c57fe5b90602001906020020181815250508080600101915050610fa0565b5081819350935050509091565b606080606060038481548110151561106857fe5b9060005260206000209060040201600101546040519080825280602002602001820160405280156110a85781602001602082028038833980820191505090505b50905060606003858154811015156110bc57fe5b9060005260206000209060040201600101546040519080825280602002602001820160405280156110fc5781602001602082028038833980820191505090505b50905060008090505b82518110156111bd5760038681548110151561111d57fe5b9060005260206000209060040201600201600082815260200190815260200160002060000154838281518110151561115157fe5b906020019060200201818152505060038681548110151561116e57fe5b906000526020600020906004020160020160008281526020019081526020016000206001015482828151811015156111a257fe5b90602001906020020181815250508080600101915050611105565b508181935093505050915091565b828054600181600116156101000203166002900490600052602060002090601f016020900481019282601f1061120c57805160ff191683800117855561123a565b8280016001018555821561123a579182015b8281111561123957825182559160200191906001019061121e565b5b509050611247919061124b565b5090565b61126d91905b80821115611269576000816000905550600101611251565b5090565b9056fea165627a7a72305820033dc09ecd03f0557f30322cf86e4530b7b9cf1a586f20d2186d8f7b6a18241c0029",
  "source": "pragma solidity ^0.5.0;\r\n\r\ncontract VoteManager {\r\n    string public systemName = \"TUL vote system\";\r\n    address public owner;\r\n    uint public lastBallotIndex = 0;\r\n\r\n    struct Voter {\r\n        bool isAllowed;\r\n        bool hasVoted;\r\n    }\r\n\r\n    struct Candidate {\r\n        bytes32 name;\r\n        uint voteCount;\r\n    }\r\n\r\n    struct Ballot {\r\n        bool isActive;\r\n        uint candidatesSize;\r\n        mapping(uint => Candidate) candidates;\r\n        mapping(uint => Voter) voters;  //key means voter id (e.g. 210210)\r\n    }\r\n\r\n    Ballot[] public ballots;\r\n\r\n    constructor() public {\r\n        owner = msg.sender;\r\n\r\n        // rest of the constructor is only example ballot;\r\n        bytes32[] memory candidateNames = new bytes32[](2);\r\n        candidateNames[0] = \"A\"; \r\n        candidateNames[1] = \"B\"; \r\n\r\n        // mocks\r\n        uint[] memory voters = new uint[](100);\r\n        voters[0] = 210183;\r\n        for(uint j = 1; j < 10; j++)\r\n        {\r\n            voters[j] = j;\r\n        }\r\n\r\n        //create new active ballot\r\n        ballots.push(Ballot(true, 2));\r\n        Ballot storage createdBallot = ballots[ballots.length - 1];\r\n\r\n        for(uint i = 0; i < 2; i++)\r\n        {\r\n            createdBallot.candidates[i] = Candidate({name: candidateNames[i], voteCount: 0});\r\n        }\r\n\r\n        for(uint v = 0; v < voters.length; v++)\r\n        {\r\n            createdBallot.voters[voters[v]] = Voter(true, false);\r\n        }\r\n\r\n        //create new already ended ballot\r\n        ballots.push(Ballot(true, 2));\r\n        Ballot storage endedBallot = ballots[ballots.length - 1];\r\n\r\n        for(uint i = 0; i < 2; i++)\r\n        {\r\n            endedBallot.candidates[i] = Candidate({name: candidateNames[i], voteCount: i*3 + 10});\r\n        }\r\n\r\n        for(uint v = 0; v < voters.length; v++)\r\n        {\r\n            endedBallot.voters[voters[v]] = Voter(true, false);\r\n        }\r\n\r\n        endedBallot.isActive = false;\r\n    }\r\n\r\n    function createBallot(bytes32[] memory candidateNames, uint[] memory voters) public{\r\n        uint newIndex = ballots.push(Ballot(true, candidateNames.length));\r\n        Ballot storage createdBallot = ballots[newIndex - 1];\r\n        for(uint i = 0; i < candidateNames.length; i++)\r\n        {\r\n            createdBallot.candidates[i] = Candidate({name: candidateNames[i], voteCount: 0});\r\n        }\r\n\r\n        for(uint v = 0; v < voters.length; v++)\r\n        {\r\n            createdBallot.voters[voters[v]] = Voter(true, false);\r\n        }\r\n\r\n        lastBallotIndex = newIndex;\r\n    }\r\n\r\n    function setSystemName(string memory x) public {\r\n        systemName = x;\r\n    }\r\n\r\n    //TODO: possible security issue \r\n    function vote(uint ballotId, uint voterId, uint candidateId) public {\r\n        require(ballots[ballotId].voters[voterId].isAllowed, \"There is no such voter.\");\r\n        require(!ballots[ballotId].voters[voterId].hasVoted, \"This voter has already voted.\");\r\n\r\n        ballots[ballotId].voters[voterId].hasVoted = true;\r\n        ballots[ballotId].candidates[candidateId].voteCount++;\r\n    }\r\n\r\n    function endBallot(uint id) public onlyOwner {\r\n        ballots[id].isActive = false;\r\n    }\r\n\r\n    function getBallots() public view returns(bool[] memory states, uint[] memory candidatesSizes) {\r\n        bool[] memory ballotsState = new bool[](ballots.length);\r\n        uint[] memory ballotsCandidatesSizes = new uint[](ballots.length);\r\n        for(uint i = 0; i < ballots.length; i++)\r\n        {\r\n            ballotsState[i] = ballots[i].isActive;\r\n            ballotsCandidatesSizes[i] = ballots[i].candidatesSize;\r\n        }\r\n        return (ballotsState, ballotsCandidatesSizes);\r\n    }\r\n\r\n    function getCandidateNamesForBallot(uint ballotIndex) public view returns(bytes32[] memory) {\r\n        bytes32[] memory candidateNames = new bytes32[](ballots[ballotIndex].candidatesSize);\r\n        for(uint i = 0; i < candidateNames.length; i++)\r\n        {\r\n            candidateNames[i] = ballots[ballotIndex].candidates[i].name;\r\n        }\r\n\r\n        return candidateNames;\r\n    }\r\n\r\n    function getCandidatsForBallot(uint ballotIndex) public view returns(bytes32[] memory names, uint[] memory voteCounts) {\r\n        bytes32[] memory candidateNames = new bytes32[](ballots[ballotIndex].candidatesSize);\r\n        uint[] memory candidatesVotes = new uint[](ballots[ballotIndex].candidatesSize);\r\n        for(uint i = 0; i < candidateNames.length; i++)\r\n        {\r\n            candidateNames[i] = ballots[ballotIndex].candidates[i].name;\r\n            candidatesVotes[i] = ballots[ballotIndex].candidates[i].voteCount;\r\n        }\r\n\r\n        return (candidateNames, candidatesVotes);\r\n    }\r\n\r\n    function getCandidateVoteCount(uint ballot, uint candidate) public view returns(uint) {\r\n        return ballots[ballot].candidates[candidate].voteCount;\r\n    }\r\n\r\n    function getCandidate(uint ballot, uint candidate) public view returns(bytes32 name, uint voteCount) {\r\n        return (ballots[ballot].candidates[candidate].name, ballots[ballot].candidates[candidate].voteCount);\r\n    }\r\n\r\n    modifier onlyOwner() {\r\n        require(msg.sender == owner, \"Owner-only method.\");\r\n        _;\r\n    }\r\n}",
  "sourcePath": "C:\\Users\\Mateusz\\Desktop\\IO\\VoteManagerContract\\Contracts\\contracts\\VoteManager.sol",
  "compiler": {
    "name": "solc",
    "version": "0.5.0+commit.1d4f565a.Emscripten.clang"
  },
  "schemaVersion": "3.0.0",
  "updatedAt": "2018-12-28T15:32:46.696Z",
  "devdoc": {
    "methods": {}
  },
  "userdoc": {
    "methods": {}
  }
}