{
  "contractName": "VoteManager",
  "abi": [
    {
      "constant": true,
      "inputs": [],
      "name": "systemName",
      "outputs": [
        {
          "name": "",
          "type": "string"
        }
      ],
      "payable": false,
      "stateMutability": "view",
      "type": "function"
    },
    {
      "constant": true,
      "inputs": [
        {
          "name": "",
          "type": "uint256"
        }
      ],
      "name": "ballots",
      "outputs": [
        {
          "name": "isActive",
          "type": "bool"
        },
        {
          "name": "candidatesSize",
          "type": "uint256"
        }
      ],
      "payable": false,
      "stateMutability": "view",
      "type": "function"
    },
    {
      "constant": true,
      "inputs": [],
      "name": "owner",
      "outputs": [
        {
          "name": "",
          "type": "address"
        }
      ],
      "payable": false,
      "stateMutability": "view",
      "type": "function"
    },
    {
      "inputs": [],
      "payable": false,
      "stateMutability": "nonpayable",
      "type": "constructor"
    },
    {
      "constant": false,
      "inputs": [
        {
          "name": "candidateNames",
          "type": "bytes32[]"
        },
        {
          "name": "voters",
          "type": "uint256[]"
        }
      ],
      "name": "createBallot",
      "outputs": [
        {
          "name": "newBallot",
          "type": "uint256"
        }
      ],
      "payable": false,
      "stateMutability": "nonpayable",
      "type": "function"
    },
    {
      "constant": false,
      "inputs": [
        {
          "name": "x",
          "type": "string"
        }
      ],
      "name": "setSystemName",
      "outputs": [],
      "payable": false,
      "stateMutability": "nonpayable",
      "type": "function"
    },
    {
      "constant": false,
      "inputs": [
        {
          "name": "ballotId",
          "type": "uint256"
        },
        {
          "name": "voterId",
          "type": "uint256"
        },
        {
          "name": "candidateId",
          "type": "uint256"
        }
      ],
      "name": "vote",
      "outputs": [],
      "payable": false,
      "stateMutability": "nonpayable",
      "type": "function"
    },
    {
      "constant": false,
      "inputs": [
        {
          "name": "id",
          "type": "uint256"
        }
      ],
      "name": "endBallot",
      "outputs": [],
      "payable": false,
      "stateMutability": "nonpayable",
      "type": "function"
    },
    {
      "constant": true,
      "inputs": [],
      "name": "getBallots",
      "outputs": [
        {
          "name": "states",
          "type": "bool[]"
        },
        {
          "name": "candidatesSizes",
          "type": "uint256[]"
        }
      ],
      "payable": false,
      "stateMutability": "view",
      "type": "function"
    },
    {
      "constant": true,
      "inputs": [
        {
          "name": "ballotIndex",
          "type": "uint256"
        }
      ],
      "name": "getCandidateNamesForBallot",
      "outputs": [
        {
          "name": "",
          "type": "bytes32[]"
        }
      ],
      "payable": false,
      "stateMutability": "view",
      "type": "function"
    },
    {
      "constant": true,
      "inputs": [
        {
          "name": "ballotIndex",
          "type": "uint256"
        }
      ],
      "name": "getCandidatsForBallot",
      "outputs": [
        {
          "name": "names",
          "type": "bytes32[]"
        },
        {
          "name": "voteCounts",
          "type": "uint256[]"
        }
      ],
      "payable": false,
      "stateMutability": "view",
      "type": "function"
    },
    {
      "constant": true,
      "inputs": [
        {
          "name": "ballot",
          "type": "uint256"
        },
        {
          "name": "candidate",
          "type": "uint256"
        }
      ],
      "name": "getCandidateVoteCount",
      "outputs": [
        {
          "name": "",
          "type": "uint256"
        }
      ],
      "payable": false,
      "stateMutability": "view",
      "type": "function"
    },
    {
      "constant": true,
      "inputs": [
        {
          "name": "ballot",
          "type": "uint256"
        },
        {
          "name": "candidate",
          "type": "uint256"
        }
      ],
      "name": "getCandidate",
      "outputs": [
        {
          "name": "name",
          "type": "bytes32"
        },
        {
          "name": "voteCount",
          "type": "uint256"
        }
      ],
      "payable": false,
      "stateMutability": "view",
      "type": "function"
    }
  ],
  "bytecode": "0x60806040526040805190810160405280600f81526020017f54554c20766f74652073797374656d00000000000000000000000000000000008152506000908051906020019062000051929190620003d1565b503480156200005f57600080fd5b5060608060008060008033600160006101000a81548173ffffffffffffffffffffffffffffffffffffffff021916908373ffffffffffffffffffffffffffffffffffffffff1602179055506002604051908082528060200260200182016040528015620000db5781602001602082028038833980820191505090505b5095507f41000000000000000000000000000000000000000000000000000000000000008660008151811015156200010f57fe5b9060200190602002019060001916908160001916815250507f42000000000000000000000000000000000000000000000000000000000000008660018151811015156200015857fe5b9060200190602002019060001916908160001916815250506064604051908082528060200260200182016040528015620001a15781602001602082028038833980820191505090505b50945062033507856000815181101515620001b857fe5b9060200190602002018181525050600093505b60648410156200020157838585815181101515620001e557fe5b90602001906020020181815250508380600101945050620001cb565b6002604080519081016040528060011515815260200160028152509080600181540180825580915050906001820390600052602060002090600402016000909192909190915060008201518160000160006101000a81548160ff0219169083151502179055506020820151816001015550505060026001600280549050038154811015156200028c57fe5b90600052602060002090600402019250600091505b60028210156200031d5760408051908101604052808784815181101515620002c557fe5b90602001906020020151600019168152602001600081525083600201600084815260200190815260200160002060008201518160000190600019169055602082015181600101559050508180600101925050620002a1565b600090505b8451811015620003c55760408051908101604052806001151581526020016000151581525083600301600087848151811015156200035c57fe5b90602001906020020151815260200190815260200160002060008201518160000160006101000a81548160ff02191690831515021790555060208201518160000160016101000a81548160ff021916908315150217905550905050808060010191505062000322565b50505050505062000480565b828054600181600116156101000203166002900490600052602060002090601f016020900481019282601f106200041457805160ff191683800117855562000445565b8280016001018555821562000445579182015b828111156200044457825182559160200191906001019062000427565b5b50905062000454919062000458565b5090565b6200047d91905b80821115620004795760008160009055506001016200045f565b5090565b90565b61112a80620004906000396000f3006080604052600436106100ba576000357c0100000000000000000000000000000000000000000000000000000000900463ffffffff16806307dd2e4b146100bf57806309578a2e1461014f578063396aabeb146101d157806348fcc1441461021c5780634bd46448146102495780635c632b38146102a35780638a6655d6146102ef5780638da5cb5b14610330578063a44b7f5614610387578063d826c476146103f0578063eb87c6dc146104ad578063f3f0449314610561575b600080fd5b3480156100cb57600080fd5b506100d461062b565b6040518080602001828103825283818151815260200191508051906020019080838360005b838110156101145780820151818401526020810190506100f9565b50505050905090810190601f1680156101415780820380516001836020036101000a031916815260200191505b509250505060405180910390f35b34801561015b57600080fd5b5061017a600480360381019080803590602001909291905050506106c9565b6040518080602001828103825283818151815260200191508051906020019060200280838360005b838110156101bd5780820151818401526020810190506101a2565b505050509050019250505060405180910390f35b3480156101dd57600080fd5b5061020660048036038101908080359060200190929190803590602001909291905050506107a0565b6040518082815260200191505060405180910390f35b34801561022857600080fd5b50610247600480360381019080803590602001909291905050506107df565b005b34801561025557600080fd5b5061027e60048036038101908080359060200190929190803590602001909291905050506108e0565b6040518083600019166000191681526020018281526020019250505060405180910390f35b3480156102af57600080fd5b506102ce60048036038101908080359060200190929190505050610958565b60405180831515151581526020018281526020019250505060405180910390f35b3480156102fb57600080fd5b5061032e600480360381019080803590602001909291908035906020019092919080359060200190929190505050610998565b005b34801561033c57600080fd5b50610345610b9b565b604051808273ffffffffffffffffffffffffffffffffffffffff1673ffffffffffffffffffffffffffffffffffffffff16815260200191505060405180910390f35b34801561039357600080fd5b506103ee600480360381019080803590602001908201803590602001908080601f0160208091040260200160405190810160405280939291908181526020018383808284378201915050505050509192919290505050610bc1565b005b3480156103fc57600080fd5b506104976004803603810190808035906020019082018035906020019080806020026020016040519081016040528093929190818152602001838360200280828437820191505050505050919291929080359060200190820180359060200190808060200260200160405190810160405280939291908181526020018383602002808284378201915050505050509192919290505050610bdb565b6040518082815260200191505060405180910390f35b3480156104b957600080fd5b506104c2610da9565b604051808060200180602001838103835285818151815260200191508051906020019060200280838360005b838110156105095780820151818401526020810190506104ee565b50505050905001838103825284818151815260200191508051906020019060200280838360005b8381101561054b578082015181840152602081019050610530565b5050505090500194505050505060405180910390f35b34801561056d57600080fd5b5061058c60048036038101908080359060200190929190505050610ed8565b604051808060200180602001838103835285818151815260200191508051906020019060200280838360005b838110156105d35780820151818401526020810190506105b8565b50505050905001838103825284818151815260200191508051906020019060200280838360005b838110156106155780820151818401526020810190506105fa565b5050505090500194505050505060405180910390f35b60008054600181600116156101000203166002900480601f0160208091040260200160405190810160405280929190818152602001828054600181600116156101000203166002900480156106c15780601f10610696576101008083540402835291602001916106c1565b820191906000526020600020905b8154815290600101906020018083116106a457829003601f168201915b505050505081565b60608060006002848154811015156106dd57fe5b90600052602060002090600402016001015460405190808252806020026020018201604052801561071d5781602001602082028038833980820191505090505b509150600090505b81518110156107965760028481548110151561073d57fe5b9060005260206000209060040201600201600082815260200190815260200160002060000154828281518110151561077157fe5b9060200190602002019060001916908160001916815250508080600101915050610725565b8192505050919050565b60006002838154811015156107b157fe5b9060005260206000209060040201600201600083815260200190815260200160002060010154905092915050565b600160009054906101000a900473ffffffffffffffffffffffffffffffffffffffff1673ffffffffffffffffffffffffffffffffffffffff163373ffffffffffffffffffffffffffffffffffffffff161415156108a4576040517f08c379a00000000000000000000000000000000000000000000000000000000081526004018080602001828103825260128152602001807f4f776e65722d6f6e6c79206d6574686f642e000000000000000000000000000081525060200191505060405180910390fd5b60006002828154811015156108b557fe5b906000526020600020906004020160000160006101000a81548160ff02191690831515021790555050565b6000806002848154811015156108f257fe5b906000526020600020906004020160020160008481526020019081526020016000206000015460028581548110151561092757fe5b9060005260206000209060040201600201600085815260200190815260200160002060010154915091509250929050565b60028181548110151561096757fe5b90600052602060002090600402016000915090508060000160009054906101000a900460ff16908060010154905082565b6002838154811015156109a757fe5b9060005260206000209060040201600301600083815260200190815260200160002060000160009054906101000a900460ff161515610a4e576040517f08c379a00000000000000000000000000000000000000000000000000000000081526004018080602001828103825260178152602001807f5468657265206973206e6f207375636820766f7465722e00000000000000000081525060200191505060405180910390fd5b600283815481101515610a5d57fe5b9060005260206000209060040201600301600083815260200190815260200160002060000160019054906101000a900460ff16151515610b05576040517f08c379a000000000000000000000000000000000000000000000000000000000815260040180806020018281038252601d8152602001807f5468697320766f7465722068617320616c726561647920766f7465642e00000081525060200191505060405180910390fd5b6001600284815481101515610b1657fe5b9060005260206000209060040201600301600084815260200190815260200160002060000160016101000a81548160ff021916908315150217905550600283815481101515610b6157fe5b9060005260206000209060040201600201600082815260200190815260200160002060010160008154809291906001019190505550505050565b600160009054906101000a900473ffffffffffffffffffffffffffffffffffffffff1681565b8060009080519060200190610bd7929190611059565b5050565b60008060008060006002604080519081016040528060011515815260200189518152509080600181540180825580915050906001820390600052602060002090600402016000909192909190915060008201518160000160006101000a81548160ff0219169083151502179055506020820151816001015550509350600260018503815481101515610c6957fe5b90600052602060002090600402019250600091505b8651821015610cf75760408051908101604052808884815181101515610ca057fe5b90602001906020020151600019168152602001600081525083600201600084815260200190815260200160002060008201518160000190600019169055602082015181600101559050508180600101925050610c7e565b600090505b8551811015610d9c576040805190810160405280600115158152602001600015158152508360030160008884815181101515610d3457fe5b90602001906020020151815260200190815260200160002060008201518160000160006101000a81548160ff02191690831515021790555060208201518160000160016101000a81548160ff0219169083151502179055509050508080600101915050610cfc565b8394505050505092915050565b6060806060806000600280549050604051908082528060200260200182016040528015610de55781602001602082028038833980820191505090505b509250600280549050604051908082528060200260200182016040528015610e1c5781602001602082028038833980820191505090505b509150600090505b600280549050811015610ecb57600281815481101515610e4057fe5b906000526020600020906004020160000160009054906101000a900460ff168382815181101515610e6d57fe5b9060200190602002019015159081151581525050600281815481101515610e9057fe5b9060005260206000209060040201600101548282815181101515610eb057fe5b90602001906020020181815250508080600101915050610e24565b8282945094505050509091565b6060806060806000600286815481101515610eef57fe5b906000526020600020906004020160010154604051908082528060200260200182016040528015610f2f5781602001602082028038833980820191505090505b509250600286815481101515610f4157fe5b906000526020600020906004020160010154604051908082528060200260200182016040528015610f815781602001602082028038833980820191505090505b509150600090505b825181101561104b57600286815481101515610fa157fe5b90600052602060002090600402016002016000828152602001908152602001600020600001548382815181101515610fd557fe5b906020019060200201906000191690816000191681525050600286815481101515610ffc57fe5b9060005260206000209060040201600201600082815260200190815260200160002060010154828281518110151561103057fe5b90602001906020020181815250508080600101915050610f89565b828294509450505050915091565b828054600181600116156101000203166002900490600052602060002090601f016020900481019282601f1061109a57805160ff19168380011785556110c8565b828001600101855582156110c8579182015b828111156110c75782518255916020019190600101906110ac565b5b5090506110d591906110d9565b5090565b6110fb91905b808211156110f75760008160009055506001016110df565b5090565b905600a165627a7a72305820050af426de1d16b23f1746adde11841649dc9b64f6b1d9ac355791dba0bb29f70029",
  "source": "pragma solidity ^0.4.24;\r\n\r\ncontract VoteManager {\r\n    string public systemName = \"TUL vote system\";\r\n    address public owner;\r\n\r\n    struct Voter {\r\n        bool isAllowed;\r\n        bool hasVoted;\r\n    }\r\n\r\n    struct Candidate {\r\n        bytes32 name;\r\n        uint voteCount;\r\n    }\r\n\r\n    struct Ballot {\r\n        bool isActive;\r\n        uint candidatesSize;\r\n        mapping(uint => Candidate) candidates;\r\n        mapping(uint => Voter) voters;  //key means voter id (e.g. 210210)\r\n    }\r\n\r\n    Ballot[] public ballots;\r\n\r\n    constructor() public {\r\n        owner = msg.sender;\r\n\r\n        // rest of the constructor is only example ballot;\r\n        bytes32[] memory candidateNames = new bytes32[](2);\r\n        candidateNames[0] = \"A\"; \r\n        candidateNames[1] = \"B\"; \r\n\r\n        uint[] memory voters = new uint[](100);\r\n        voters[0] = 210183;\r\n        for(uint j = 0; j < 100; j++)\r\n        {\r\n            voters[j] = j;\r\n        }\r\n\r\n        //create new ballot\r\n        ballots.push(Ballot(true, 2));\r\n        Ballot storage createdBallot = ballots[ballots.length - 1];\r\n\r\n        for(uint i = 0; i < 2; i++)\r\n        {\r\n            createdBallot.candidates[i] = Candidate({name: candidateNames[i], voteCount: 0});\r\n        }\r\n\r\n        for(uint v = 0; v < voters.length; v++)\r\n        {\r\n            createdBallot.voters[voters[v]] = Voter(true, false);\r\n        }\r\n    }\r\n\r\n    function createBallot(bytes32[] memory candidateNames, uint[] memory voters) public returns(uint newBallot){\r\n        uint newIndex = ballots.push(Ballot(true, candidateNames.length));\r\n        Ballot storage createdBallot = ballots[newIndex - 1];\r\n        for(uint i = 0; i < candidateNames.length; i++)\r\n        {\r\n            createdBallot.candidates[i] = Candidate({name: candidateNames[i], voteCount: 0});\r\n        }\r\n\r\n        for(uint v = 0; v < voters.length; v++)\r\n        {\r\n            createdBallot.voters[voters[v]] = Voter(true, false);\r\n        }\r\n\r\n        return newIndex;\r\n    }\r\n\r\n    function setSystemName(string memory x) public {\r\n        systemName = x;\r\n    }\r\n\r\n    //TODO: possible security issue \r\n    function vote(uint ballotId, uint voterId, uint candidateId) public {\r\n        require(ballots[ballotId].voters[voterId].isAllowed, \"There is no such voter.\");\r\n        require(!ballots[ballotId].voters[voterId].hasVoted, \"This voter has already voted.\");\r\n\r\n        ballots[ballotId].voters[voterId].hasVoted = true;\r\n        ballots[ballotId].candidates[candidateId].voteCount++;\r\n    }\r\n\r\n    function endBallot(uint id) public onlyOwner {\r\n        ballots[id].isActive = false;\r\n    }\r\n\r\n    function getBallots() public view returns(bool[] memory states, uint[] memory candidatesSizes) {\r\n        bool[] memory ballotsState = new bool[](ballots.length);\r\n        uint[] memory ballotsCandidatesSizes = new uint[](ballots.length);\r\n        for(uint i = 0; i < ballots.length; i++)\r\n        {\r\n            ballotsState[i] = ballots[i].isActive;\r\n            ballotsCandidatesSizes[i] = ballots[i].candidatesSize;\r\n        }\r\n        return (ballotsState, ballotsCandidatesSizes);\r\n    }\r\n\r\n    function getCandidateNamesForBallot(uint ballotIndex) public view returns(bytes32[] memory) {\r\n        bytes32[] memory candidateNames = new bytes32[](ballots[ballotIndex].candidatesSize);\r\n        for(uint i = 0; i < candidateNames.length; i++)\r\n        {\r\n            candidateNames[i] = ballots[ballotIndex].candidates[i].name;\r\n        }\r\n\r\n        return candidateNames;\r\n    }\r\n\r\n    function getCandidatsForBallot(uint ballotIndex) public view returns(bytes32[] memory names, uint[] memory voteCounts) {\r\n        bytes32[] memory candidateNames = new bytes32[](ballots[ballotIndex].candidatesSize);\r\n        uint[] memory candidatesVotes = new uint[](ballots[ballotIndex].candidatesSize);\r\n        for(uint i = 0; i < candidateNames.length; i++)\r\n        {\r\n            candidateNames[i] = ballots[ballotIndex].candidates[i].name;\r\n            candidatesVotes[i] = ballots[ballotIndex].candidates[i].voteCount;\r\n        }\r\n\r\n        return (candidateNames, candidatesVotes);\r\n    }\r\n\r\n    function getCandidateVoteCount(uint ballot, uint candidate) public view returns(uint) {\r\n        return ballots[ballot].candidates[candidate].voteCount;\r\n    }\r\n\r\n    function getCandidate(uint ballot, uint candidate) public view returns(bytes32 name, uint voteCount) {\r\n        return (ballots[ballot].candidates[candidate].name, ballots[ballot].candidates[candidate].voteCount);\r\n    }\r\n\r\n    modifier onlyOwner() {\r\n        require(msg.sender == owner, \"Owner-only method.\");\r\n        _;\r\n    }\r\n}",
  "sourcePath": "C:\\Users\\marek\\Desktop\\blokczejn\\VoteManagerContract\\Contracts\\contracts\\VoteManager.sol",
  "compiler": {
    "name": "solc",
    "version": "0.4.24+commit.e67f0147.Emscripten.clang"
  },
  "schemaVersion": "2.0.1",
  "updatedAt": "2018-12-16T16:44:05.289Z"
}