{
  "contractName": "VoteManager",
  "abi": [
    {
      "constant": true,
      "inputs": [],
      "name": "systemName",
      "outputs": [
        {
          "name": "",
          "type": "string"
        }
      ],
      "payable": false,
      "stateMutability": "view",
      "type": "function",
      "signature": "0x07dd2e4b"
    },
    {
      "constant": true,
      "inputs": [
        {
          "name": "",
          "type": "uint256"
        }
      ],
      "name": "ballots",
      "outputs": [
        {
          "name": "isActive",
          "type": "bool"
        },
        {
          "name": "candidatesSize",
          "type": "uint256"
        }
      ],
      "payable": false,
      "stateMutability": "view",
      "type": "function",
      "signature": "0x5c632b38"
    },
    {
      "constant": true,
      "inputs": [],
      "name": "owner",
      "outputs": [
        {
          "name": "",
          "type": "address"
        }
      ],
      "payable": false,
      "stateMutability": "view",
      "type": "function",
      "signature": "0x8da5cb5b"
    },
    {
      "inputs": [],
      "payable": false,
      "stateMutability": "nonpayable",
      "type": "constructor",
      "signature": "constructor"
    },
    {
      "anonymous": false,
      "inputs": [
        {
          "indexed": true,
          "name": "ballot",
          "type": "uint256"
        }
      ],
      "name": "BallotCreation",
      "type": "event",
      "signature": "0x26f13f51c1c0d167cf0021eacde95b86aefcd6dc996946008520eb93e8bdf207"
    },
    {
      "anonymous": false,
      "inputs": [
        {
          "indexed": true,
          "name": "ballot",
          "type": "uint256"
        }
      ],
      "name": "BallotEnd",
      "type": "event",
      "signature": "0x22bd719ab927d287a1348ad43a9f33df8864f883e8e6c9d80d25b498f5556688"
    },
    {
      "anonymous": false,
      "inputs": [
        {
          "indexed": true,
          "name": "ballot",
          "type": "uint256"
        },
        {
          "indexed": true,
          "name": "candidate",
          "type": "uint256"
        }
      ],
      "name": "Voted",
      "type": "event",
      "signature": "0x84a5508ca0d85b42a876e75a9126f3ae7b43617ce60b170bf8805d34630bc654"
    },
    {
      "constant": false,
      "inputs": [
        {
          "name": "candidateNames",
          "type": "bytes32[]"
        },
        {
          "name": "voters",
          "type": "uint256[]"
        }
      ],
      "name": "createBallot",
      "outputs": [],
      "payable": false,
      "stateMutability": "nonpayable",
      "type": "function",
      "signature": "0xd826c476"
    },
    {
      "constant": false,
      "inputs": [
        {
          "name": "x",
          "type": "string"
        }
      ],
      "name": "setSystemName",
      "outputs": [],
      "payable": false,
      "stateMutability": "nonpayable",
      "type": "function",
      "signature": "0xa44b7f56"
    },
    {
      "constant": false,
      "inputs": [
        {
          "name": "ballotId",
          "type": "uint256"
        },
        {
          "name": "voterId",
          "type": "uint256"
        },
        {
          "name": "candidateId",
          "type": "uint256"
        }
      ],
      "name": "vote",
      "outputs": [],
      "payable": false,
      "stateMutability": "nonpayable",
      "type": "function",
      "signature": "0x8a6655d6"
    },
    {
      "constant": false,
      "inputs": [
        {
          "name": "id",
          "type": "uint256"
        }
      ],
      "name": "endBallot",
      "outputs": [],
      "payable": false,
      "stateMutability": "nonpayable",
      "type": "function",
      "signature": "0x48fcc144"
    },
    {
      "constant": true,
      "inputs": [],
      "name": "getBallots",
      "outputs": [
        {
          "name": "states",
          "type": "bool[]"
        },
        {
          "name": "candidatesSizes",
          "type": "uint256[]"
        }
      ],
      "payable": false,
      "stateMutability": "view",
      "type": "function",
      "signature": "0xeb87c6dc"
    },
    {
      "constant": true,
      "inputs": [
        {
          "name": "ballotIndex",
          "type": "uint256"
        }
      ],
      "name": "getCandidateNamesForBallot",
      "outputs": [
        {
          "name": "",
          "type": "bytes32[]"
        }
      ],
      "payable": false,
      "stateMutability": "view",
      "type": "function",
      "signature": "0x09578a2e"
    },
    {
      "constant": true,
      "inputs": [
        {
          "name": "ballotIndex",
          "type": "uint256"
        }
      ],
      "name": "getCandidatsForBallot",
      "outputs": [
        {
          "name": "names",
          "type": "bytes32[]"
        },
        {
          "name": "voteCounts",
          "type": "uint256[]"
        }
      ],
      "payable": false,
      "stateMutability": "view",
      "type": "function",
      "signature": "0xf3f04493"
    },
    {
      "constant": true,
      "inputs": [
        {
          "name": "ballot",
          "type": "uint256"
        },
        {
          "name": "candidate",
          "type": "uint256"
        }
      ],
      "name": "getCandidateVoteCount",
      "outputs": [
        {
          "name": "",
          "type": "uint256"
        }
      ],
      "payable": false,
      "stateMutability": "view",
      "type": "function",
      "signature": "0x396aabeb"
    },
    {
      "constant": true,
      "inputs": [
        {
          "name": "ballot",
          "type": "uint256"
        },
        {
          "name": "candidate",
          "type": "uint256"
        }
      ],
      "name": "getCandidate",
      "outputs": [
        {
          "name": "name",
          "type": "bytes32"
        },
        {
          "name": "voteCount",
          "type": "uint256"
        }
      ],
      "payable": false,
      "stateMutability": "view",
      "type": "function",
      "signature": "0x4bd46448"
    }
  ],
  "bytecode": "0x60806040526040805190810160405280600f81526020017f54554c20766f74652073797374656d00000000000000000000000000000000008152506000908051906020019062000051929190620000a7565b503480156200005f57600080fd5b5033600160006101000a81548173ffffffffffffffffffffffffffffffffffffffff021916908373ffffffffffffffffffffffffffffffffffffffff16021790555062000156565b828054600181600116156101000203166002900490600052602060002090601f016020900481019282601f10620000ea57805160ff19168380011785556200011b565b828001600101855582156200011b579182015b828111156200011a578251825591602001919060010190620000fd565b5b5090506200012a91906200012e565b5090565b6200015391905b808211156200014f57600081600090555060010162000135565b5090565b90565b6112e180620001666000396000f3fe6080604052600436106100ba576000357c0100000000000000000000000000000000000000000000000000000000900463ffffffff16806307dd2e4b146100bf57806309578a2e1461014f578063396aabeb146101df57806348fcc144146102385780634bd46448146102735780635c632b38146102d35780638a6655d61461032d5780638da5cb5b1461037c578063a44b7f56146103d3578063d826c4761461049b578063eb87c6dc146105f4578063f3f04493146106a8575b600080fd5b3480156100cb57600080fd5b506100d4610780565b6040518080602001828103825283818151815260200191508051906020019080838360005b838110156101145780820151818401526020810190506100f9565b50505050905090810190601f1680156101415780820380516001836020036101000a031916815260200191505b509250505060405180910390f35b34801561015b57600080fd5b506101886004803603602081101561017257600080fd5b810190808035906020019092919050505061081e565b6040518080602001828103825283818151815260200191508051906020019060200280838360005b838110156101cb5780820151818401526020810190506101b0565b505050509050019250505060405180910390f35b3480156101eb57600080fd5b506102226004803603604081101561020257600080fd5b8101908080359060200190929190803590602001909291905050506108ea565b6040518082815260200191505060405180910390f35b34801561024457600080fd5b506102716004803603602081101561025b57600080fd5b8101908080359060200190929190505050610929565b005b34801561027f57600080fd5b506102b66004803603604081101561029657600080fd5b810190808035906020019092919080359060200190929190505050610a57565b604051808381526020018281526020019250505060405180910390f35b3480156102df57600080fd5b5061030c600480360360208110156102f657600080fd5b8101908080359060200190929190505050610acf565b60405180831515151581526020018281526020019250505060405180910390f35b34801561033957600080fd5b5061037a6004803603606081101561035057600080fd5b81019080803590602001909291908035906020019092919080359060200190929190505050610b0f565b005b34801561038857600080fd5b50610391610d40565b604051808273ffffffffffffffffffffffffffffffffffffffff1673ffffffffffffffffffffffffffffffffffffffff16815260200191505060405180910390f35b3480156103df57600080fd5b50610499600480360360208110156103f657600080fd5b810190808035906020019064010000000081111561041357600080fd5b82018360208201111561042557600080fd5b8035906020019184600183028401116401000000008311171561044757600080fd5b91908080601f016020809104026020016040519081016040528093929190818152602001838380828437600081840152601f19601f820116905080830192505050505050509192919290505050610d66565b005b3480156104a757600080fd5b506105f2600480360360408110156104be57600080fd5b81019080803590602001906401000000008111156104db57600080fd5b8201836020820111156104ed57600080fd5b8035906020019184602083028401116401000000008311171561050f57600080fd5b919080806020026020016040519081016040528093929190818152602001838360200280828437600081840152601f19601f8201169050808301925050505050505091929192908035906020019064010000000081111561056f57600080fd5b82018360208201111561058157600080fd5b803590602001918460208302840111640100000000831117156105a357600080fd5b919080806020026020016040519081016040528093929190818152602001838360200280828437600081840152601f19601f820116905080830192505050505050509192919290505050610d80565b005b34801561060057600080fd5b50610609610f6a565b604051808060200180602001838103835285818151815260200191508051906020019060200280838360005b83811015610650578082015181840152602081019050610635565b50505050905001838103825284818151815260200191508051906020019060200280838360005b83811015610692578082015181840152602081019050610677565b5050505090500194505050505060405180910390f35b3480156106b457600080fd5b506106e1600480360360208110156106cb57600080fd5b8101908080359060200190929190505050611099565b604051808060200180602001838103835285818151815260200191508051906020019060200280838360005b8381101561072857808201518184015260208101905061070d565b50505050905001838103825284818151815260200191508051906020019060200280838360005b8381101561076a57808201518184015260208101905061074f565b5050505090500194505050505060405180910390f35b60008054600181600116156101000203166002900480601f0160208091040260200160405190810160405280929190818152602001828054600181600116156101000203166002900480156108165780601f106107eb57610100808354040283529160200191610816565b820191906000526020600020905b8154815290600101906020018083116107f957829003601f168201915b505050505081565b60608060028381548110151561083057fe5b9060005260206000209060040201600101546040519080825280602002602001820160405280156108705781602001602082028038833980820191505090505b50905060008090505b81518110156108e05760028481548110151561089157fe5b906000526020600020906004020160020160008281526020019081526020016000206000015482828151811015156108c557fe5b90602001906020020181815250508080600101915050610879565b5080915050919050565b60006002838154811015156108fb57fe5b9060005260206000209060040201600201600083815260200190815260200160002060010154905092915050565b600160009054906101000a900473ffffffffffffffffffffffffffffffffffffffff1673ffffffffffffffffffffffffffffffffffffffff163373ffffffffffffffffffffffffffffffffffffffff161415156109ee576040517f08c379a00000000000000000000000000000000000000000000000000000000081526004018080602001828103825260128152602001807f4f776e65722d6f6e6c79206d6574686f642e000000000000000000000000000081525060200191505060405180910390fd5b60006002828154811015156109ff57fe5b906000526020600020906004020160000160006101000a81548160ff021916908315150217905550807f22bd719ab927d287a1348ad43a9f33df8864f883e8e6c9d80d25b498f555668860405160405180910390a250565b600080600284815481101515610a6957fe5b9060005260206000209060040201600201600084815260200190815260200160002060000154600285815481101515610a9e57fe5b9060005260206000209060040201600201600085815260200190815260200160002060010154915091509250929050565b600281815481101515610ade57fe5b90600052602060002090600402016000915090508060000160009054906101000a900460ff16908060010154905082565b600283815481101515610b1e57fe5b9060005260206000209060040201600301600083815260200190815260200160002060000160009054906101000a900460ff161515610bc5576040517f08c379a00000000000000000000000000000000000000000000000000000000081526004018080602001828103825260178152602001807f5468657265206973206e6f207375636820766f7465722e00000000000000000081525060200191505060405180910390fd5b600283815481101515610bd457fe5b9060005260206000209060040201600301600083815260200190815260200160002060000160019054906101000a900460ff16151515610c7c576040517f08c379a000000000000000000000000000000000000000000000000000000000815260040180806020018281038252601d8152602001807f5468697320766f7465722068617320616c726561647920766f7465642e00000081525060200191505060405180910390fd5b6001600284815481101515610c8d57fe5b9060005260206000209060040201600301600084815260200190815260200160002060000160016101000a81548160ff021916908315150217905550600283815481101515610cd857fe5b906000526020600020906004020160020160008281526020019081526020016000206001016000815480929190600101919050555080837f84a5508ca0d85b42a876e75a9126f3ae7b43617ce60b170bf8805d34630bc65460405160405180910390a3505050565b600160009054906101000a900473ffffffffffffffffffffffffffffffffffffffff1681565b8060009080519060200190610d7c929190611210565b5050565b60006002604080519081016040528060011515815260200185518152509080600181540180825580915050906001820390600052602060002090600402016000909192909190915060008201518160000160006101000a81548160ff02191690831515021790555060208201518160010155505090506000600260018303815481101515610e0a57fe5b9060005260206000209060040201905060008090505b8451811015610e8f5760408051908101604052808683815181101515610e4257fe5b906020019060200201518152602001600081525082600201600083815260200190815260200160002060008201518160000155602082015181600101559050508080600101915050610e20565b5060008090505b8351811015610f36576040805190810160405280600115158152602001600015158152508260030160008684815181101515610ece57fe5b90602001906020020151815260200190815260200160002060008201518160000160006101000a81548160ff02191690831515021790555060208201518160000160016101000a81548160ff0219169083151502179055509050508080600101915050610e96565b50817f26f13f51c1c0d167cf0021eacde95b86aefcd6dc996946008520eb93e8bdf20760405160405180910390a250505050565b6060806060600280549050604051908082528060200260200182016040528015610fa35781602001602082028038833980820191505090505b5090506060600280549050604051908082528060200260200182016040528015610fdc5781602001602082028038833980820191505090505b50905060008090505b60028054905081101561108c5760028181548110151561100157fe5b906000526020600020906004020160000160009054906101000a900460ff16838281518110151561102e57fe5b906020019060200201901515908115158152505060028181548110151561105157fe5b906000526020600020906004020160010154828281518110151561107157fe5b90602001906020020181815250508080600101915050610fe5565b5081819350935050509091565b60608060606002848154811015156110ad57fe5b9060005260206000209060040201600101546040519080825280602002602001820160405280156110ed5781602001602082028038833980820191505090505b509050606060028581548110151561110157fe5b9060005260206000209060040201600101546040519080825280602002602001820160405280156111415781602001602082028038833980820191505090505b50905060008090505b82518110156112025760028681548110151561116257fe5b9060005260206000209060040201600201600082815260200190815260200160002060000154838281518110151561119657fe5b90602001906020020181815250506002868154811015156111b357fe5b906000526020600020906004020160020160008281526020019081526020016000206001015482828151811015156111e757fe5b9060200190602002018181525050808060010191505061114a565b508181935093505050915091565b828054600181600116156101000203166002900490600052602060002090601f016020900481019282601f1061125157805160ff191683800117855561127f565b8280016001018555821561127f579182015b8281111561127e578251825591602001919060010190611263565b5b50905061128c9190611290565b5090565b6112b291905b808211156112ae576000816000905550600101611296565b5090565b9056fea165627a7a723058203db1d1001cbb7f05f8ddaefbb68c10137b6221293a08089f44e14f79284145bd0029",
  "source": "pragma solidity ^0.5.0;\r\n\r\ncontract VoteManager {\r\n    string public systemName = \"TUL vote system\";\r\n    address public owner;\r\n    Ballot[] public ballots;\r\n\r\n    event BallotCreation (\r\n        uint indexed ballot\r\n    );\r\n\r\n    event BallotEnd (\r\n        uint indexed ballot\r\n    );\r\n\r\n    event Voted (\r\n        uint indexed ballot,\r\n        uint indexed candidate\r\n    );\r\n\r\n    struct Voter {\r\n        bool isAllowed;\r\n        bool hasVoted;\r\n    }\r\n\r\n    struct Candidate {\r\n        bytes32 name;\r\n        uint voteCount;\r\n    }\r\n\r\n    struct Ballot {\r\n        bool isActive;\r\n        uint candidatesSize;\r\n        mapping(uint => Candidate) candidates;\r\n        mapping(uint => Voter) voters;  //key means voter id (e.g. 210210)\r\n    }\r\n\r\n\r\n    constructor() public {\r\n        owner = msg.sender;\r\n    }\r\n\r\n    function createBallot(bytes32[] memory candidateNames, uint[] memory voters) public{\r\n        uint newIndex = ballots.push(Ballot(true, candidateNames.length));\r\n        Ballot storage createdBallot = ballots[newIndex - 1];\r\n        for(uint i = 0; i < candidateNames.length; i++)\r\n        {\r\n            createdBallot.candidates[i] = Candidate({name: candidateNames[i], voteCount: 0});\r\n        }\r\n\r\n        for(uint v = 0; v < voters.length; v++)\r\n        {\r\n            createdBallot.voters[voters[v]] = Voter(true, false);\r\n        }\r\n\r\n        emit BallotCreation(newIndex);\r\n    }\r\n\r\n    function setSystemName(string memory x) public {\r\n        systemName = x;\r\n    }\r\n\r\n    function vote(uint ballotId, uint voterId, uint candidateId) public {\r\n        require(ballots[ballotId].voters[voterId].isAllowed, \"There is no such voter.\");\r\n        require(!ballots[ballotId].voters[voterId].hasVoted, \"This voter has already voted.\");\r\n\r\n        ballots[ballotId].voters[voterId].hasVoted = true;\r\n        ballots[ballotId].candidates[candidateId].voteCount++;\r\n\r\n        emit Voted(ballotId, candidateId);\r\n    }\r\n\r\n    function endBallot(uint id) public onlyOwner {\r\n        ballots[id].isActive = false;\r\n        emit BallotEnd(id);\r\n    }\r\n\r\n    function getBallots() public view returns(bool[] memory states, uint[] memory candidatesSizes) {\r\n        bool[] memory ballotsState = new bool[](ballots.length);\r\n        uint[] memory ballotsCandidatesSizes = new uint[](ballots.length);\r\n        for(uint i = 0; i < ballots.length; i++)\r\n        {\r\n            ballotsState[i] = ballots[i].isActive;\r\n            ballotsCandidatesSizes[i] = ballots[i].candidatesSize;\r\n        }\r\n        return (ballotsState, ballotsCandidatesSizes);\r\n    }\r\n\r\n    function getCandidateNamesForBallot(uint ballotIndex) public view returns(bytes32[] memory) {\r\n        bytes32[] memory candidateNames = new bytes32[](ballots[ballotIndex].candidatesSize);\r\n        for(uint i = 0; i < candidateNames.length; i++)\r\n        {\r\n            candidateNames[i] = ballots[ballotIndex].candidates[i].name;\r\n        }\r\n\r\n        return candidateNames;\r\n    }\r\n\r\n    function getCandidatsForBallot(uint ballotIndex) public view returns(bytes32[] memory names, uint[] memory voteCounts) {\r\n        bytes32[] memory candidateNames = new bytes32[](ballots[ballotIndex].candidatesSize);\r\n        uint[] memory candidatesVotes = new uint[](ballots[ballotIndex].candidatesSize);\r\n        for(uint i = 0; i < candidateNames.length; i++)\r\n        {\r\n            candidateNames[i] = ballots[ballotIndex].candidates[i].name;\r\n            candidatesVotes[i] = ballots[ballotIndex].candidates[i].voteCount;\r\n        }\r\n\r\n        return (candidateNames, candidatesVotes);\r\n    }\r\n\r\n    function getCandidateVoteCount(uint ballot, uint candidate) public view returns(uint) {\r\n        return ballots[ballot].candidates[candidate].voteCount;\r\n    }\r\n\r\n    function getCandidate(uint ballot, uint candidate) public view returns(bytes32 name, uint voteCount) {\r\n        return (ballots[ballot].candidates[candidate].name, ballots[ballot].candidates[candidate].voteCount);\r\n    }\r\n\r\n    modifier onlyOwner() {\r\n        require(msg.sender == owner, \"Owner-only method.\");\r\n        _;\r\n    }\r\n}",
  "sourcePath": "C:/Users/Mateusz/Desktop/IO/VoteManagerContract/Contracts/contracts/VoteManager.sol",
  "compiler": {
    "name": "solc",
    "version": "0.5.0+commit.1d4f565a.Emscripten.clang"
  },
  "schemaVersion": "3.0.0",
  "updatedAt": "2019-01-08T20:38:02.856Z",
  "devdoc": {
    "methods": {}
  },
  "userdoc": {
    "methods": {}
  }
}